{
  "contractName": "Election",
  "abi": [
    {
      "inputs": [],
      "payable": false,
      "stateMutability": "nonpayable",
      "type": "constructor"
    },
    {
      "anonymous": false,
      "inputs": [
        {
          "indexed": false,
          "internalType": "uint256",
          "name": "id",
          "type": "uint256"
        },
        {
          "indexed": false,
          "internalType": "string",
          "name": "name",
          "type": "string"
        },
        {
          "indexed": false,
          "internalType": "uint256",
          "name": "votecount",
          "type": "uint256"
        }
      ],
      "name": "electionupdated",
      "type": "event"
    },
    {
      "constant": true,
      "inputs": [
        {
          "internalType": "uint256",
          "name": "",
          "type": "uint256"
        }
      ],
      "name": "candidates",
      "outputs": [
        {
          "internalType": "uint256",
          "name": "id",
          "type": "uint256"
        },
        {
          "internalType": "string",
          "name": "name",
          "type": "string"
        },
        {
          "internalType": "uint256",
          "name": "votecount",
          "type": "uint256"
        }
      ],
      "payable": false,
      "stateMutability": "view",
      "type": "function"
    },
    {
      "constant": true,
      "inputs": [],
      "name": "candidatesCount",
      "outputs": [
        {
          "internalType": "uint256",
          "name": "",
          "type": "uint256"
        }
      ],
      "payable": false,
      "stateMutability": "view",
      "type": "function"
    },
    {
      "constant": true,
      "inputs": [
        {
          "internalType": "address",
          "name": "",
          "type": "address"
        }
      ],
      "name": "votedornot",
      "outputs": [
        {
          "internalType": "bool",
          "name": "",
          "type": "bool"
        }
      ],
      "payable": false,
      "stateMutability": "view",
      "type": "function"
    },
    {
      "constant": false,
      "inputs": [
        {
          "internalType": "uint256",
          "name": "_candidateId",
          "type": "uint256"
        }
      ],
      "name": "Vote",
      "outputs": [],
      "payable": false,
      "stateMutability": "nonpayable",
      "type": "function"
    }
  ],
  "bytecode": "0x608060405234801561001057600080fd5b506100556040518060400160405280600b81526020017f6a6f6b6f207769646f646f00000000000000000000000000000000000000000081525061009e60201b60201c565b6100996040518060400160405280601081526020017f707261626f776f2073756269616e746f0000000000000000000000000000000081525061009e60201b60201c565b6101bd565b60008081548092919060010191905055506040518060600160405280600054815260200182815260200160008152506001600080548152602001908152602001600020600082015181600001556020820151816001019080519060200190610107929190610118565b506040820151816002015590505050565b828054600181600116156101000203166002900490600052602060002090601f016020900481019282601f1061015957805160ff1916838001178555610187565b82800160010185558215610187579182015b8281111561018657825182559160200191906001019061016b565b5b5090506101949190610198565b5090565b6101ba91905b808211156101b657600081600090555060010161019e565b5090565b90565b610598806101cc6000396000f3fe608060405234801561001057600080fd5b506004361061004c5760003560e01c80631bc57022146100515780632d35a8a2146100ad5780633477ee2e146100cb578063dcd6a5cd14610180575b600080fd5b6100936004803603602081101561006757600080fd5b81019080803573ffffffffffffffffffffffffffffffffffffffff1690602001909291905050506101ae565b604051808215151515815260200191505060405180910390f35b6100b56101ce565b6040518082815260200191505060405180910390f35b6100f7600480360360208110156100e157600080fd5b81019080803590602001909291905050506101d4565b6040518084815260200180602001838152602001828103825284818151815260200191508051906020019080838360005b83811015610143578082015181840152602081019050610128565b50505050905090810190601f1680156101705780820380516001836020036101000a031916815260200191505b5094505050505060405180910390f35b6101ac6004803603602081101561019657600080fd5b8101908080359060200190929190505050610296565b005b60026020528060005260406000206000915054906101000a900460ff1681565b60005481565b6001602052806000526040600020600091509050806000015490806001018054600181600116156101000203166002900480601f0160208091040260200160405190810160405280929190818152602001828054600181600116156101000203166002900480156102865780601f1061025b57610100808354040283529160200191610286565b820191906000526020600020905b81548152906001019060200180831161026957829003601f168201915b5050505050908060020154905083565b600260003373ffffffffffffffffffffffffffffffffffffffff1673ffffffffffffffffffffffffffffffffffffffff16815260200190815260200160002060009054906101000a900460ff1615610356576040517f08c379a00000000000000000000000000000000000000000000000000000000081526004018080602001828103825260128152602001807f6b616d752074656c6168206d656d696c6968000000000000000000000000000081525060200191505060405180910390fd5b6000600160008381526020019081526020016000206000015411801561037e57506000548111155b6103f0576040517f08c379a00000000000000000000000000000000000000000000000000000000081526004018080602001828103825260128152602001807f696420746964616b20646974656d756b616e000000000000000000000000000081525060200191505060405180910390fd5b6001806000838152602001908152602001600020600201600082825401925050819055506001600260003373ffffffffffffffffffffffffffffffffffffffff1673ffffffffffffffffffffffffffffffffffffffff16815260200190815260200160002060006101000a81548160ff0219169083151502179055507f3c841f91385f410e6f12269c9a0c0eb656e360f1e2d6f91144cfd51a10a2a3188160016000848152602001908152602001600020600101600160008581526020019081526020016000206002015460405180848152602001806020018381526020018281038252848181546001816001161561010002031660029004815260200191508054600181600116156101000203166002900480156105505780601f1061052557610100808354040283529160200191610550565b820191906000526020600020905b81548152906001019060200180831161053357829003601f168201915b505094505050505060405180910390a15056fea265627a7a72315820b9db71f422a8172551c9b09d31c92d8b61cdc891b3ba770c971e5b98553a4bc464736f6c63430005100032",
  "source": "// SPDX-License-Identifier: MIT\npragma solidity >=0.4.22 <0.9.0;\n\ncontract Election {\n    struct Candidate {\n        uint256 id;\n        string name;\n        uint256 votecount;\n    }\n    uint256 public candidatesCount;\n    mapping(uint256 => Candidate) public candidates;\n    mapping(address => bool) public votedornot;\n\n    event electionupdated(uint256 id, string name, uint256 votecount);\n\n    constructor() public {\n        addCandidate(\"joko widodo\");\n        addCandidate(\"prabowo subianto\");\n    }\n\n    function addCandidate(string memory name) private {\n        candidatesCount++;\n        candidates[candidatesCount] = Candidate(candidatesCount, name, 0);\n    }\n\n    function Vote(uint256 _candidateId) public {\n        //the person has not voted again\n        require(!votedornot[msg.sender], \"kamu telah memilih\");\n        //the id that the person has input is available\n        require(\n            candidates[_candidateId].id > 0 && _candidateId <= candidatesCount,\n            \"id tidak ditemukan\"\n        );\n        //pemilih bertambah\n        candidates[_candidateId].votecount += 1;\n        //bool true\n        votedornot[msg.sender] = true;\n        emit electionupdated(\n            _candidateId,\n            candidates[_candidateId].name,\n            candidates[_candidateId].votecount\n        );\n    }\n}\n",
  "sourcePath": "/home/zakie/project-sr/election-dapp/contracts/Election.sol",
  "compiler": {
    "name": "solc",
    "version": "0.5.16+commit.9c3226ce.Emscripten.clang"
  },
  "schemaVersion": "3.3.3",
  "updatedAt": "2021-03-01T04:14:11.744Z",
  "networkType": "ethereum",
  "devdoc": {
    "methods": {}
  },
  "userdoc": {
    "methods": {}
  }
}